{
  "address": "0x08402801A1B76DbcD604201284B8d8949329f2a1",
  "abi": [
    {
      "inputs": [],
      "stateMutability": "nonpayable",
      "type": "constructor"
    },
    {
      "anonymous": false,
      "inputs": [],
      "name": "HashAdded",
      "type": "event"
    },
    {
      "inputs": [],
      "name": "deleteIPFSHash",
      "outputs": [],
      "stateMutability": "nonpayable",
      "type": "function"
    },
    {
      "inputs": [],
      "name": "getIPFSHash",
      "outputs": [
        {
          "internalType": "string",
          "name": "",
          "type": "string"
        }
      ],
      "stateMutability": "view",
      "type": "function"
    },
    {
      "inputs": [],
      "name": "hashSet",
      "outputs": [
        {
          "internalType": "bool",
          "name": "",
          "type": "bool"
        }
      ],
      "stateMutability": "view",
      "type": "function"
    },
    {
      "inputs": [],
      "name": "ipfsHash",
      "outputs": [
        {
          "internalType": "string",
          "name": "",
          "type": "string"
        }
      ],
      "stateMutability": "view",
      "type": "function"
    },
    {
      "inputs": [],
      "name": "owner",
      "outputs": [
        {
          "internalType": "address",
          "name": "",
          "type": "address"
        }
      ],
      "stateMutability": "view",
      "type": "function"
    },
    {
      "inputs": [],
      "name": "postsToSendAvailable",
      "outputs": [
        {
          "internalType": "bool",
          "name": "",
          "type": "bool"
        }
      ],
      "stateMutability": "view",
      "type": "function"
    },
    {
      "inputs": [
        {
          "internalType": "string",
          "name": "_ipfsHash",
          "type": "string"
        }
      ],
      "name": "setIPFSHash",
      "outputs": [],
      "stateMutability": "nonpayable",
      "type": "function"
    }
  ],
  "transactionHash": "0x60b8d0193f2fb1725fa3615d59629404bbcde861ea83ca12ba0380b5a899418c",
  "args": [],
  "numDeployments": 3,
  "solcInputHash": "df998210a1930820820bb9c0a086091c",
  "bytecode": "0x608060405234801561001057600080fd5b50600080546001600160a01b03191633179055610620806100326000396000f3fe608060405234801561001057600080fd5b506004361061007d5760003560e01c806397973df41161005b57806397973df4146100d5578063ac3a26b4146100f2578063b8a76f54146100fd578063c623674f1461011057600080fd5b806320b28ade1461008257806381e7135f146100a05780638da5cb5b146100aa575b600080fd5b61008a610118565b604051610097919061034a565b60405180910390f35b6100a86101aa565b005b6000546100bd906001600160a01b031681565b6040516001600160a01b039091168152602001610097565b6002546100e29060ff1681565b6040519015158152602001610097565b60025460ff166100e2565b6100a861010b3660046103ae565b61024c565b61008a6102bc565b6060600180546101279061045f565b80601f01602080910402602001604051908101604052809291908181526020018280546101539061045f565b80156101a05780601f10610175576101008083540402835291602001916101a0565b820191906000526020600020905b81548152906001019060200180831161018357829003601f168201915b5050505050905090565b6000546001600160a01b031633146101dd5760405162461bcd60e51b81526004016101d490610499565b60405180910390fd5b60025460ff166102235760405162461bcd60e51b815260206004820152601160248201527012541194c81a185cda081b9bdd081cd95d607a1b60448201526064016101d4565b60408051602081019091526000815260019061023f908261052a565b506002805460ff19169055565b6000546001600160a01b031633146102765760405162461bcd60e51b81526004016101d490610499565b6001610282828261052a565b506002805460ff191660011790556040517f8f72ace7fe5918925ae368d51fac90767a641a15b79398a336b527609a4214bc90600090a150565b600180546102c99061045f565b80601f01602080910402602001604051908101604052809291908181526020018280546102f59061045f565b80156103425780601f1061031757610100808354040283529160200191610342565b820191906000526020600020905b81548152906001019060200180831161032557829003601f168201915b505050505081565b600060208083528351808285015260005b818110156103775785810183015185820160400152820161035b565b506000604082860101526040601f19601f8301168501019250505092915050565b634e487b7160e01b600052604160045260246000fd5b6000602082840312156103c057600080fd5b813567ffffffffffffffff808211156103d857600080fd5b818401915084601f8301126103ec57600080fd5b8135818111156103fe576103fe610398565b604051601f8201601f19908116603f0116810190838211818310171561042657610426610398565b8160405282815287602084870101111561043f57600080fd5b826020860160208301376000928101602001929092525095945050505050565b600181811c9082168061047357607f821691505b60208210810361049357634e487b7160e01b600052602260045260246000fd5b50919050565b60208082526022908201527f4f6e6c79206f776e65722063616e20706572666f726d2074686973206163746960408201526137b760f11b606082015260800190565b601f82111561052557600081815260208120601f850160051c810160208610156105025750805b601f850160051c820191505b818110156105215782815560010161050e565b5050505b505050565b815167ffffffffffffffff81111561054457610544610398565b61055881610552845461045f565b846104db565b602080601f83116001811461058d57600084156105755750858301515b600019600386901b1c1916600185901b178555610521565b600085815260208120601f198616915b828110156105bc5788860151825594840194600190910190840161059d565b50858210156105da5787850151600019600388901b60f8161c191681555b5050505050600190811b0190555056fea264697066735822122055abc3390b40d607e6d7eb054963ba48b8f071fb3ccbcf2b7bef72132d40751064736f6c63430008110033",
  "devdoc": {
    "kind": "dev",
    "methods": {},
    "version": 1
  },
  "userdoc": {
    "kind": "user",
    "methods": {},
    "version": 1
  },
  "storageLayout": {
    "storage": [
      {
        "astId": 5,
        "contract": "contracts/gathering/Gathering.sol:Gathering",
        "label": "owner",
        "offset": 0,
        "slot": "0",
        "type": "t_address"
      },
      {
        "astId": 7,
        "contract": "contracts/gathering/Gathering.sol:Gathering",
        "label": "ipfsHash",
        "offset": 0,
        "slot": "1",
        "type": "t_string_storage"
      },
      {
        "astId": 9,
        "contract": "contracts/gathering/Gathering.sol:Gathering",
        "label": "hashSet",
        "offset": 0,
        "slot": "2",
        "type": "t_bool"
      }
    ],
    "types": {
      "t_address": {
        "encoding": "inplace",
        "label": "address",
        "numberOfBytes": "20"
      },
      "t_bool": {
        "encoding": "inplace",
        "label": "bool",
        "numberOfBytes": "1"
      },
      "t_string_storage": {
        "encoding": "bytes",
        "label": "string",
        "numberOfBytes": "32"
      }
    }
  }
}